8=FIX.4.2|9=92|35=D|49=CLIENT1|56=SERVER|11=ORD1001|55=AAPL|54=1|38=150|44=135.50|60=20250604-12:30:05.123|10=195|
8=FIX.4.2|9=92|35=D|49=CLIENT2|56=SERVER|11=ORD1002|55=GOOG|54=2|38=75|44=2520.00|60=20250604-12:30:10.456|10=218|
8=FIX.4.2|9=86|35=F|49=CLIENT1|56=SERVER|11=ORD1003|41=ORD1001|55=AAPL|54=1|60=20250604-12:30:15.789|10=022|
8=FIX.4.2|9=86|35=F|49=CLIENT2|56=SERVER|11=ORD1004|41=ORD1002|55=GOOG|54=2|60=20250604-12:30:20.000|10=012|
8=FIX.4.2|9=130|35=8|49=SERVER|56=CLIENT1|11=ORD1001|150=0|39=0|55=AAPL|54=1|38=150|44=135.50|32=150|31=135.50|17=ER1001|60=20250604-12:30:25.111|10=195|
8=FIX.4.2|9=126|35=8|49=SERVER|56=CLIENT2|11=ORD1002|150=4|39=4|55=GOOG|54=2|38=75|44=2520.00|32=0|31=0.00|17=ER1002|60=20250604-12:30:30.222|10=014|

