8=FIX.4.2|9=112|35=D|49=CLIENT1|56=SERVER|11=ORD001|55=AAPL|54=1|38=100|44=150.25|10=128|
8=FIX.4.2|9=110|35=D|49=CLIENT2|56=SERVER|11=ORD002|55=GOOG|54=2|38=50|44=2030.50|10=056|
8=FIX.4.2|9=118|35=F|49=CLIENT1|56=SERVER|11=ORD001|41=ORD001|55=AAPL|54=1|10=215|
8=FIX.4.2|9=160|35=D|49=CLIENT3|56=SERVER|11=ORD003|55=MSFT|54=1|38=200|44=305.75|60=20250218-14:32:10.345|10=090|
8=FIX.4.2|9=142|35=8|49=SERVER|56=CLIENT1|150=0|39=0|11=ORD001|55=AAPL|54=1|38=100|44=150.25|32=100|31=150.25|17=ER001|10=037|
8=FIX.4.2|9=144|35=8|49=SERVER|56=CLIENT2|150=0|39=0|11=ORD002|55=GOOG|54=2|38=50|44=2030.50|32=50|31=2030.50|17=ER002|10=079|
8=FIX.4.2|9=140|35=D|49=CLIENT4|56=SERVER|11=ORD004|55=TSLA|54=1|38=10|44=720.00|60=20250218-14:32:12.112|10=183|
8=FIX.4.2|9=152|35=8|49=SERVER|56=CLIENT3|150=0|39=0|11=ORD003|55=MSFT|54=1|38=200|48=59201|22=8|44=305.75|32=200|31=305.75|17=ER003|10=204|
8=FIX.4.2|9=109|35=D|49=CLIENT5|56=SERVER|11=ORD005|55=FB|54=2|38=75|44=245.10|10=065|
8=FIX.4.2|9=150|35=8|49=SERVER|56=CLIENT5|150=8|39=8|11=ORD005|55=FB|54=2|38=75|44=245.10|32=0|31=0.00|150=8|39=8|17=ER004|10=042|
